S00E0000752D626F6F742E73726563C0
S31501000040160000EA14F09FE514F09FE514F09FE511
S3150100005014F09FE514F09FE514F09FE514F09FE579
S315010000600002000160020001C0020001200300013C
S3150100007080030001E00300012004000178563412D8
S3150100008040000001E8350300E83503002C7A07003B
S31501000090A0A10300DEC0AD0BDEC0AD0BDEC0AD0B13
S315010000A02C0500EB00000FE11F00C0E3D30080E345
S315010000B000F029E1100F11EE020AC0E3100F01EE64
S315010000C098039FE5100F0CEE360000EB460000EB9F
S315010000D0D50500EB0040A0E10150A0E10260A0E1DE
S315010000E0A8004FE2060050E10090A0032200000A9A
S315010000F00610A0E174301FE5032080E00006B0E899
S315010001000006A1E8020050E1FBFFFF3A94001FE55B
S31501000110009046E06CA09FE500A08AE05C209FE588
S31501000120002082E058309FE5003083E0000092E530
S31501000130090080E0041092E5FF7001E2170057E321
S315010001400700000A020057E30000000A060000EA61
S315010001502112A0E101108AE0041091E5091081E065
S31501000160010000EA001090E5091081E0001080E529
S31501000170082082E2030052E1EBFFFF3A1EFF2FE166
S31501000180E835030070A1030070A10300150F07EE07
S315010001909A0F07EE950F07EEC0029FE5100F0CEEC2
S315010001A01EFF2FE11EFF2FE10000A0E3170F08EE4F
S315010001B0150F07EED50F07EE9A0F07EE950F07EE0F
S315010001C0100F11EE020AC0E30700C0E3020080E34C
S315010001D0020B80E3010A80E3100F01EE300F1FEEE0
S315010001E0020680E3300F0FEE0EF0A0E1370100EAC0
S315010001F000F020E300F020E300F020E300F020E32C
S315010002006CD11FE500E08DE500E04FE104E08DE5EE
S3150100021013D0A0E30DF069E10FE0A0E10EF0B0E12B
S3150100022048D04DE2FF1F8DE894211FE50C0092E8AE
S3150100023048008DE234508DE20E10A0E10F0085E8F2
S315010002400D00A0E1CC0600FA00F020E300F020E367
S3150100025000F020E300F020E300F020E300F020E3CB
S3150100026004D04DE200008DE5D4011FE500E080E5F4
S3150100027000004FE104E080E500009DE504D08DE239
S3150100028048D04DE2FF1F8DE8F4211FE50C0092E8EE
S3150100029048008DE234508DE20E10A0E10F0085E892
S315010002A00D00A0E1BA0600FA00F020E300F020E319
S315010002B000F020E300F020E300F020E300F020E36B
S315010002C02CD21FE500E08DE500E04FE104E08DE56D
S315010002D013D0A0E30DF069E10FE0A0E10EF0B0E16B
S315010002E048D04DE2FF1F8DE854221FE50C0092E82D
S315010002F048008DE234508DE20E10A0E10F0085E832
S315010003000D00A0E1A80600FA00F020E300F020E3CA
S3150100031000F020E300F020E300F020E300F020E30A
S315010003208CD21FE500E08DE500E04FE104E08DE5AC
S3150100033013D0A0E30DF069E10FE0A0E10EF0B0E10A
S3150100034048D04DE2FF1F8DE8B4221FE50C0092E86C
S3150100035048008DE234508DE20E10A0E10F0085E8D1
S315010003600D00A0E1960600FA00F020E300F020E37C
S3150100037000F020E300F020E300F020E300F020E3AA
S31501000380ECD21FE500E08DE500E04FE104E08DE5EC
S3150100039013D0A0E30DF069E10FE0A0E10EF0B0E1AA
S315010003A048D04DE2FF1F8DE814231FE50C0092E8AB
S315010003B048008DE234508DE20E10A0E10F0085E871
S315010003C00D00A0E1840600FA00F020E300F020E32E
S315010003D000F020E300F020E300F020E300F020E34A
S315010003E054D31FE548D04DE2FF1F8DE83C508DE206
S315010003F0006045E900E085E500604FE1046085E5C0
S31501000400080085E50D00A0E1890200FAFF7FDDE81D
S315010004100000A0E13CE09DE548D08DE204F05EE2FB
S3150100042090D31FE548D04DE2FF1F8DE83C508DE289
S31501000430006045E900E085E500604FE1046085E57F
S31501000440080085E50D00A0E1690600FAFF7FDDE8F9
S315010004500000A0E13CE09DE548D08DE204F05EE2BB
S31501000460400000012DE9F34E009030EE303F0024AC
S315010004704FF0FF350193019A6600331922FA03F30F
S3150100048003F00703023B022B39D840EE106F30EE22
S31501000490100FC0F3C90200F0070102F1010E043189
S315010004A0C0F34E30F4464FF0FF375FEA5C0C07F1BC
S315010004B001032AD112EA0E0F18BFBB1C009FC3F11C
S315010004C02003012F23D105FA03FE05FA01F902FAE9
S315010004D003F300FA01F1074646EA030B8C464BEAA1
S315010004E00C0A07EE56AF013FCC44B7F1FF3FF6D1F8
S315010004F0013A7344571CEED1002307EE9A3F0134AB
S31501000500072CB8D102B0BDE8F08E1F46CDE7009F9B
S31501000510022FF4D105FA03FE05FA01F902FA03F3F3
S3150100052000FA01F1074646EA030B8C464CEA0B0A30
S3150100053007EE5EAF013FCC44B7F1FF3FF6D1013A7A
S315010005407344571CEED1D7E7002307EE153F07EE9C
S31501000550D53F07EE9A3F07EE953F704770477047C4
S31501000560704708B50220FFF77DFFBDE80840FFF799
S31501000570F7BF704708B50120FFF774FFBDE80840D3
S31501000580FFF7F7BF08B5FFF7E9FFFFF7F3FF002312
S3150100059008EE173F08EE163F08EE153F07EE9A3FA5
S315010005A007EE953F08BD704730EE103F03F0070395
S315010005B0012204339A4053420340994204D800234E
S315010005C007EE9A3FFFF7EFBF07EE3E3F1344F4E70E
S315010005D008B5FFF7E9FF002308EE173F08EE163FBF
S315010005E008EE153F07EE9A3F07EE953F08BD014419
S315010005F0FFF7DABF70472DE9F04206460F4630EEA7
S31501000600105F05F007052B1D01259D4005F1FF39FA
S3150100061010EA090F1DD0024612491348741E09F04B
S3150100062065F82C446B421C4017EA090F13D03A4671
S315010006300C490E4809F05AF86B423B409C420CD3D8
S31501000640002307EE9A3F39463046BDE8F042FFF7F0
S31501000650D1BF0446E8E73B46F0E707EE364F2C44A8
S31501000660ECE700BF305502015056020183560201E4
S31501000670704708B501F003FB01F022FCFFF764FFA8
S3150100068001F068FCFFF76BFFFFF774FFFFF7F0FF60
S31501000690002008BD0138FDD1704710B5012404FAC8
S315010006A002F20468013A8B408A4024EA02021343AB
S315010006B0036010BD30B500240134156805408D4234
S315010006C003D09C42F8D1002030BD012030BD00008E
S315010006D00CD09FE507D0CDE300502DE9010000FACB
S315010006E00090BDE880FEFFFF054A13686FEA1333E9
S315010006F06FEA03331360034B01221A60704700BF90
S3150100070054C0FEFF00FCFEFF054B4FF0FF321A609E
S315010007105A609A6842F0030200209A60704700BF4F
S315010007200000D0FF46F2A81310B558430A4BA0FBB0
S3150100073003018B0909494A68002B00DC10BD486892
S31501000740824235BFC0F101049B1A12191B1838BF2A
S315010007509B180246F0E700BFD34D62100000D0FFA0
S315010007600D4B5A680D4BD208A2FB0323D8F8302053
S31501000770190A9142D8F83020D8F82000024484BFE3
S3150100078002F5273202F21632521AC8F82020C8F8AA
S315010007903010D8F8200070470000D0FF89B5F81452
S315010007A010B50446FFF7DCFF001B10BD064B5A6867
S315010007B0064BD208A2FB032300221B0AC8F83030DD
S315010007C0C8F82020704700BF0000D0FF89B5F81493
S315010007D00A4B5968D8F830208A42D8F83020D8F820
S315010007E02000A2EB010238BF02F1FF320244C8F831
S315010007F02020C8F83010D8F8200070470000D0FF3C
S3150100080010B50446FFF7E4FF001B10BD034A52680A
S31501000810C8F830200022C8F8202070470000D0FF19
S3150100082008B5FFF79DFF002108BD4FF47A707047A8
S31501000830044B5A6942F040025A615A6922F0400259
S315010008405A6170470050D0FF024B5869C0F38010BF
S31501000850704700BF0050D0FF024A536843F00203BD
S315010008605360FEE70050D0FF014B00225A617047EA
S315010008700050D0FF08B500F071F900B9FEE7034B4F
S315010008800022DA61024B19221A6008BD0050D0FF1E
S31501000890000080FF014B00221A6170470050D0FF13
S315010008A0024A536923F48073536170470050D0FFA5
S315010008B0024A536923F04003536170470050D0FF49
S315010008C0024B4FF0FF325A61704700BF0050D0FF14
S315010008D0024B4FF0FF32DA61704700BF0050D0FF84
S315010008E0024B6FF040025A61704700BF0050D0FFC3
S315010008F0014A024B5A617047BFFFFFDF0050D0FF2C
S31501000900044B5A6918B142F001025A61704722F04C
S315010009100102FAE70050D0FF044B5A6918B142F0C0
S3150100092002025A61704722F00202FAE70050D0FF34
S31501000930064B1A6842F010021A601A6818B142F0A2
S3150100094001021A60704722F00102FAE73C50C2FF29
S315010009501B4B10B51C6862070CD51969194808F0BC
S31501000960C5FE194B1968194B19481A6811441960C3
S3150100097007F024F814F0080416D0164808F0A2FE71
S31501000980124B1548196808F0B1FE144B1968144842
S3150100099008F0ACFE134B1968134808F0A7FE134B79
S315010009A01968134808F0A2FE124A136843F01003AF
S315010009B0136024B10020FFF7BBFF01F013F810BD4F
S315010009C03850C2FFB55602014050C2FF2836030116
S315010009D0D3560201E1560201005702014850C2FFF7
S315010009E0105702014C50C2FF205702015050C2FF5E
S315010009F0325702013C50C2FF0F4B196803F56323BE
S31501000A0001F01F0064331B685A1EC1F382211F2A9D
S31501000A1038BF1A46094B28BF0F221B68282B08D05E
S31501000A20182B08BF1023DB080844104403FA00F012
S31501000A3070472023F7E700BF2C50C2FF3050C2FF9A
S31501000A4010B5FFF7D9FF4446014600200DF050FBD3
S31501000A50A063002010BD10B500248CB00294FFF7EE
S31501000A60CBFF40F6C41303900A93154B1548009427
S31501000A700B9308F027FEFFF799FE2046FFF790FE3D
S31501000A800446684611F004F820B10F4808F01AFE32
S31501000A9000F0A8FF684610F0E7FE08B10B48F5E73D
S31501000AA0684610F0B9FF08B10948EFE72046FFF79D
S31501000AB077FE0146074808F019FE0CB010BD00BFCD
S31501000AC02C36030143570201625702017C5702018A
S31501000AD096570201B1570201024B1868C0F3800014
S31501000AE0704700BF506870FF024B186800F007009E
S31501000AF0704700BF006070FF044A5368800123F00D
S31501000B00C003C0B218435060704700BF006070FF59
S31501000B10094BDA680AB10122DA604FF080729860F7
S31501000B20D96819B101220020DA607047013AF7D17C
S31501000B304FF0FF30704700BF006070FF08B5FFF748
S31501000B40CBFF08B9002008BDFFF7C6FF0028F9D082
S31501000B50FFF7CAFF031F5842584108BD4FF0807284
S31501000B6008B5FFF7B9FF18B9013AFAD1104608BD21
S31501000B70FFF7B2FF0028F7D0012008BD2C4908B5C0
S31501000B8008684B68C008020700F00B004CBF43F42D
S31501000B90007323F4007308284B6034D10020FFF75B
S31501000BA0ABFF4B684FF0807223F002034B604B683A
S31501000BB043F001034B604B6843F004034B60FFF7BE
S31501000BC093FF012801D0013AF9D1FFF78DFF0128E2
S31501000BD028D14B684FF0807223F004034B60FFF776
S31501000BE083FF022801D0013AF9D1FFF77DFF0228E0
S31501000BF01BD1104B40F6FF7200201A604B6843F47C
S31501000C0080734B6008BD092801D10220C7E70A2875
S31501000C1001D10320C3E70028C0D00128BFD0022894
S31501000C20BFD1F2E74FF0FF3008BD6FF0010008BDFC
S31501000C30006070FF4C6870FF0A46014922F064BAF1
S31501000C400000B9FF0B494FF080720B6813F00303E4
S31501000C5006D0032B07D0013AF7D16FF00300704796
S31501000C606FF002007047044A0020536823F4807332
S31501000C7053607047506870FF006070FF08B504202C
S31501000C80FFF746FF024678B94FF08071FFF72CFF58
S31501000C90032807D0FFF728FF042803D00139F5D12F
S31501000CA06FF00502104608BD6FF00402FAE708B5B9
S31501000CB04FF4A040FFF72CFF024658B94FF0807160
S31501000CC0FFF712FF042808D00139F9D16FF00702A6
S31501000CD0104608BD6FF00602FAE703494B6823F098
S31501000CE001034B60F4E700BF006070FF38B50446AE
S31501000CF00D460F4A00231360A2F56222A2F6A872DE
S31501000D001360FFF7E5FD0B4B01221A60FFF736FF73
S31501000D1068B929462046FFF78FFFFFF793FF30B9E1
S31501000D20FFF7ACFF18B9BDE83840FFF7C0BF38BDC3
S31501000D302880D0FF000080FF084A4FF0FF33136080
S31501000D4004321360043213600432136004321360F8
S31501000D5004321360043213605360704780D1FEFF82
S31501000D60084A4FF0FF3313600432136004321360F4
S31501000D7004321360043213600432136004321360C8
S31501000D805360704780D2FEFF430900F01F02012025
S31501000D909B009040A3F59733A3F580731968084328
S31501000DA0186070471F2810B511D900F0FC0300F038
S31501000DB00300A3F59433C0001A68FF24844001FAA6
S31501000DC000F022EA04021A601A681043186010BD86
S31501000DD0030900F00F00400010B59B000324844076
S31501000DE00129A3F592331A6822EA04021A6005D191
S31501000DF01968022202FA00F00843186010BD43097F
S31501000E0000F01F0201209B009040A3F5973319685B
S31501000E10084318607047430900F01F0201209B0038
S31501000E209040A3F59633A3F5C0731968084318607B
S31501000E30704700BF38B5084DAC69D32C0AD8074BAB
S31501000E4003EBC40253F8343050689847E0B2FFF719
S31501000E50E2FF2C6138BD00BF00C1FEFF1C05030186
S31501000E6010B50A4C236823F001032360FFF764FFE2
S31501000E70FFF776FF064A08235360236843F0010310
S31501000E80236001230020136010BD00BF00D0FEFFC8
S31501000E9000C1FEFF38B50446084D45F83010194625
S31501000EA005EBC0056A60FFF793FF01212046FFF7B6
S31501000EB079FF2046FFF768FF002038BD1C050301B6
S31501000EC0FFF79DBF40001F22030F013A83EAD0734B
S31501000ED04FEA430303F0020343EA4000F4D1C0F3AF
S31501000EE0007383EAD073184370472DE9F7468146AC
S31501000EF00E4615461F461C464FF0000ACA4504DB3E
S31501000F0000244C4519DB012034E02046FFF7DAFFC7
S31501000F10A842014602D9294621F070FF0C464A42F1
S31501000F2001F0030302F003020AF1010A58BF53421A
S31501000F30CB1A995117F048FEE0E73846FFF7C2FF92
S31501000F408542034603D2294621F058FF0B465942F2
S31501000F5003F0030201F003011F4658BF4A42991AE2
S31501000F608A198959994208D000912146054808F005
S31501000F70BDFB002003B0BDE8F08617F025FE013465
S31501000F80BFE700BFE1570201012870B50D461646BD
S31501000F9014D00C4B0C4C022808BF1C460B4808F019
S31501000FA091FB20460A4B32462946FFF79EFF04462F
S31501000FB030B1084808F086FB204670BD064CEDE7C7
S31501000FC00648F7E700CA9A3B40420F00285802013B
S31501000FD0EFBEADDE505802018096980034CF020173
S31501000FE09A4B2DE9F04E044686B00D461A6822F456
S31501000FF080621A60964A4FF43D7111600193029224
S3150100100005B99D63019A0023DFF88492DFF884B263
S315010010101360002D40F0D7800B23C9F80030DBF8B0
S315010010200030D907FBD48B4F8B4B3B608B4EDFF8DF
S3150100103068A23360002D00F0CE80894915230B602C
S31501001040884B0020186038683068DAF8000020689C
S315010010503860E06A30600391049315B9636DCAF88C
S315010010600030FFF7A3FB0020FFF79AFB03466068F9
S315010010707D490860A06804310860E06804310860B1
S31501001080042094310860A06988390860206B2C31EE
S315010010900860606B04310860206938390860A06B0C
S315010010A03C310860606938390860E06B3C310860A2
S315010010B0206C04310860606C486018460593FFF7A0
S315010010C06FFB0628059BF8D9236843F002033B60B2
S315010010D0E36A43F00203336025B9636D43F002030B
S315010010E0CAF80030E169614B1960216A043319605D
S315010010F0616A04331960A16C38331960E16C5C4A8A
S31501001100596000231146106800F4E070B0F5E07FE5
S3150100111064D10133092BF6D9A5B9A36DC3F308032D
S31501001120A0F53F10F8380360E36DC3F308030430FC
S315010011300360236EC3F3080304300360636EC3F3D5
S31501001140080343603A6842F080733B60306840F0C0
S315010011508073336035B9636D43F0807343F00203E6
S31501001160CAF8003022F080733B6020F08070306056
S31501001170002D35D00023C9F80030DBF80030DB073D
S31501001180FBD43C4A136843F001031360DBF800000B
S3150100119010F00100FAD1236D039A1360A36A049A31
S315010011A01360029A4FF0FF331360019A1360324ABB
S315010011B013603823C83A0B60136843F001031360C8
S315010011C006B0BDE8F08E0923C9F80030DBF800301F
S315010011D0DA07FBD427E7CAF800302EE7002392E7A7
S315010011E0636D43F00203CAF80030244BA06D244E10
S315010011F01D461F683742FCD11860214B28681842EA
S31501001200FCD1204BE06D1E4E1D461F683742FCD1B6
S3150100121018601B4B28681842FCD11B4B206E184ED8
S315010012201D461F683742FCD11860154B28681842C5
S31501001230FCD1164B606E124E1D461F683742FCD11B
S3150100124018600F4B28681842FCD193E7A040D0FFE5
S315010012506040D0FF4040D0FF0D0001008040D0FF2C
S31501001260AC40D0FF7040D0FF4840D0FF6440D0FF73
S315010012700840D0FF0040D0FFD840D0FFC840D0FF83
S3150100128000FE1F00CC40D0FFD040D0FFD440D0FF9D
S315010012900440D0FF1440D0FFC040D0FF0B4B10B527
S315010012A01C68C4F305410A480131C4F3CC0421F09A
S315010012B077FC084B04FB00001968013121F070FC32
S315010012C0054B1968013121F06BFC10BD4040D0FF80
S315010012D040787D01E040D0FF4840D0FF0C4B10B56F
S315010012E01A6812F4400F0B481C6818BF0020C4F39B
S315010012F00541C4F3CC04013121F052FC064B04FB39
S3150100130000001968C1F30801013121F049FC10BD43
S31501001310C040D0FF40787D01C840D0FF194B10B5C1
S315010013201B689B071BD4184B1C68C4F3054117485F
S315010013300131C4F3CC0421F033FC154B04FB00004E
S315010013401968013121F02CFC124B1968013121F089
S3150100135027FC114B1B68C3F3C213D84010BD0F4BBA
S315010013601A6812F4400F09481C6818BF0020C4F31C
S315010013700541C4F3CC04013121F012FC084B04FBF6
S315010013800000E2E77040D0FF4040D0FF40787D0189
S31501001390E440D0FF4C40D0FF6440D0FF8040D0FFF6
S315010013A09840D0FF184B10B5186810F0030012D002
S315010013B0012812D153F86C4CC4F30541134801318D
S315010013C0C4F3CC0421F0ECFB114B04FB00001968BB
S315010013D0013121F0E5FB800810BD022812D10D4B29
S315010013E01A6812F4400F09481C6818BF0020C4F39C
S315010013F00541C4F3CC04013121F0D2FB064B04FBB9
S315010014000000E4E70020E6E7AC40D0FF40787D012C
S315010014105840D0FF8040D0FF9440D0FF184B10B504
S315010014201868C0F3011048B3012811D153F86C4C68
S31501001430C4F3054113480131C4F3CC0421F0B0FBD8
S31501001440114B04FB00001968013121F0A9FB10BD05
S31501001450022812D10D4B1A6812F4400F09481C6874
S3150100146018BF0020C4F30541C4F3CC04013121F0B7
S3150100147097FB074B04FB0000E5E7002010BD00BF0A
S31501001480AC40D0FF40787D015440D0FF8040D0FF72
S315010014909040D0FF10B546F2A8111D4C1D4808F02A
S315010014A025F900211C4808F021F900211B4808F004
S315010014B01DF900211A4808F019F9FFF7EFFEA0FB04
S315010014C004011848890C08F011F9FFF707FFA0FB82
S315010014D00401154C1548890C08F008F9FFF71EFFA1
S315010014E0A0FB04011248890908F000F9FFF75AFF29
S315010014F0A0FB04010F48890908F0F8F8FFF78EFFF1
S31501001500A0FB04010C48BDE81040890908F0EEB8BB
S3150100151083DE1B4358580201735802018E5802019B
S31501001520AF580201D0580201D34D6210EA580201A8
S31501001530045902011F5902013959020110B5054C1E
S31501001540FFF7ECFE2060FFF72DFF6060FFF766FFF7
S31501001550A06010BDBC0B03011EFF2FE1100F11EEA1
S31501001560020BC0E3010AC0E3100F01EE4FF07FF555
S315010015706FF07FF534109FE534209FE5021081E07E
S31501001580000091E52C309FE5030080E1000081E534
S315010015904FF07FF56FF07FF5104F11EE024B84E3AC
S315010015A0014A84E3104F01EE0000A0E30EF0A0E132
S315010015B00000C2FF5C50000008000000F04F2DE95A
S315010015C028119FE528219FE50230A0E1F00FB1E83F
S315010015D0F00FA3E8F00FB1E8F00FA3E8F00FB1E8C0
S315010015E0F00FA3E84FF07FF56FF07FF532FF2FE1A3
S315010015F0F08FBDE8F04F2DE9200052E30000000A0C
S315010016000300009AF00FB0E8F00F81E8202052E2C3
S31501001610F8FFFFEA040052E30000000A0300009A03
S315010016201000B0E8100081E8042052E2F8FFFFEA5A
S31501001630000052E30100000A003090E5003081E528
S31501001640F08FBDE894009FE50410A0E31920A0E304
S31501001650013080E0004093E5025084E1005083E5CB
S315010016604FF07FF56FF07FF55410A0E30320A0E360
S31501001670013080E0002083E55810A0E30320A0E3B9
S31501001680013080E0002083E59010A0E30120A0E373
S31501001690013080E0002083E59410A0E30120A0E35F
S315010016A0013080E0002083E534009FE534109FE59A
S315010016B00020A0E3002081E50410A0E3012080E0E2
S315010016C00130A0E38330A0E1004092E5044083E1CC
S315010016D0004082E54FF07FF56FF07FF5FCFFFFEAF2
S315010016E00040D0FF0050D0FFE080D0FFA8000000EE
S315010016F05C1500010000FFFF08B510F023FB022076
S315010017000249BDE8084010F02FBB00BFC80B03011A
S3150100171008B5024807F0D6FF002008BD545902015A
S3150100172010B588B0FFF7E8FF2349244806F051F9C0
S31501001730234B1A68234C684621461DF048F9694631
S31501001740214806F071F82149214806F042F9214B5A
S315010017501A68214668461DF03AF969461E4806F0A0
S3150100176063F81E491E4806F034F91E491E4806F064
S3150100177030F91E4B1A68214668461DF028F969465C
S315010017801B4806F051F81B491B4806F022F91B4B72
S315010017901A68214668461DF01AF96946184806F086
S315010017A043F81849184806F03FF81849184806F052
S315010017B03BF8002008B010BD2880D0FF7559020102
S315010017C08880D0FF7E590201855902018050C2FFEF
S315010017D0965902018C80D0FFA1590201BC15000166
S315010017E0B45902011C50D0FFC55902018080D0FFB7
S315010017F0CF590201000080FFE15902018480D0FF28
S31501001800E9590201F95902019B5A0201B15A020131
S315010018100B5B02010020704700220421014812F0EF
S31501001820BBB800BF004070FF00F05BBB74D09FE502
S3150100183007D0CDE380D04DE207D0CDE30D80A0E106
S315010018400000A0E36A0000FA44D098E507D0CDE392
S31501001850008098E5808048E214E08FE2480098E530
S3150100186000E08EE0440098E50810A0E1342098E5F8
S3150100187017FAFFEA44FAFFEB2C009FE52C109FE5CF
S315010018800020A0E3010050E10020803504008032F1
S31501001890FBFFFF3A200000FA1F0000FB0800A0E151
S315010018A0341098E508F09FE580FEFFFF2836030116
S315010018B06C7A0701471900010020704708B50648F0
S315010018C007F000FF0221054810F0E6FC044807F086
S315010018D0F9FE002008BD00BF1A5B0201A0860100C7
S315010018E077CF020108B50349034807F0FFFE002040
S315010018F008BD00BF60350201225B020110B54FF43D
S31501001900E13244460A21034806F0FCF8A0600020B3
S3150100191010BD00BF295B0201002070477047704768
S315010019207047704770477047704770477047D8F8DF
S31501001930002000219161D8F80020D8F83830D36111
S3150100194070470020704708B50C46D8F8043043F0BC
S315010019500103C8F804301D4B1A681D4B1A60FFF7C6
S3150100196063FF21F070F813F099FF4FF48421A4F579
S31501001970842008F053F8FFF7E4FF164807F0A2FEAB
S31501001980D8F8000011F014FE08F0D0FF0CF0BEFFED
S3150100199009F0D3FA07F098FF0F4CFFF7C1FE00F0EC
S315010019A051F900F065F9226810210C4806F0AAF8F1
S315010019B0206021F052F80A4807F084FED8F80000AA
S315010019C01FF0FCF90CF026FBFCE700BF90000001BC
S315010019D0F03F0301325B0201B82903013A5B0201C0
S315010019E0435B020108B5024807F06CFEFEE700BF43
S315010019F04B5B02012DE9F0428022002140461CF09A
S31501001A0070FA2F4B444610212E481B68C8F83C300B
S31501001A10D8F8542006F076F860652B4C54F8047F0C
S31501001A20002F47D14FF48042D8F83840C8F85020EB
S31501001A3041F29B01D8F85020A41A240C2404C8F8BA
S31501001A404C40D8F83C20A41A24F47F6424F00F04F7
S31501001A50A4F58425A4F58526A5F12002A03DC8F8A4
S31501001A600020B03ED8F800205160C8F84050D8F8A0
S31501001A700020D8F808301360FFF759FFD8F8003076
S31501001A801248D3F81C9007F01DFE3946104A484605
S31501001A901BF004F90F4B2846C8F834404146C8F8F4
S31501001AA0446080221B68E41AC8F84840BDE8F04249
S31501001AB01CF045BAB8470028B0D0FFF793FF00BF26
S31501001AC08C000001755B0201DC0B0301845B0201E2
S31501001AD039B3020180000001D8F8003037B5044659
S31501001AE0056E5B681048019305F0E2FF38B11021DD
S31501001AF001AA1CF0D1FE01990C4807F0F7FD0F2051
S31501001B000BF032FF0A4807F0F1FDFEF7B2FD236F35
S31501001B102BB1E26E01990020A84703B030BDD8F879
S31501001B2000309A68F6E700BF8C5B0201935B020105
S31501001B30B85B0201036F30B5044689B0002B37D07C
S31501001B4000F19005C16E284603930BF01BFD616EF3
S31501001B5004F17803A26E2846009304F17403521A25
S31501001B600BF0AEFC48BB284603AA04F16C010BF04E
S31501001B7037FD054608BB0121E06E09F0EDFBD8F8FB
S31501001B80003004A9E06E05959A69DB690795049210
S31501001B9006AA0693012309F0D2FCE06E09F0A1FD25
S31501001BA00123A26F616FE06E09F04CFB09B030BDF5
S31501001BB0034807F09BFDFFF715FF0248F9E700BF51
S31501001BC0CF5B0201005C0201D8F80020D8F8003092
S31501001BD069469269A1F58051DB691A44521A1BF0D4
S31501001BE06EBF704770B510F030061C4613D110F069
S31501001BF0400505D035461846FFF79CFF284670BDBF
S31501001C0010F0800F184602D0FFF766FFF6E7FFF7E0
S31501001C1091FF2046F8E74FF0FF35EFE710B5074B88
S31501001C20446A9C4204D0064807F04CFD012010BDD1
S31501001C30836A0B60C36A0020136010BD18286F0108
S31501001C40205C0201D8F840300649D8F84020181F18
S31501001C50A3F204430860044908320A60034A136088
S31501001C60FFF7FEB8940000019C00000198000001F6
S31501001C70EFF3008323F0800383F300817047EFF3D2
S31501001C80008040F0C00383F3008180F08000C0F340
S31501001C90C010704708B501481CF0A6FE3D5C020164
S31501001CA030B5A3B00446802202A82A491CF047F9A0
S31501001CB0E36A256C28480193236B0093636BA26B3F
S31501001CC0E16B07F013FD236A626AA16A234807F0F4
S31501001CD00DFD2369224800936369A269E16907F052
S31501001CE005FD23681F480093E1686368A26807F051
S31501001CF0FDFC002DB4BF4E216E2115F0804F14BF9F
S31501001D005A227A2215F0005F14BF4323632315F08C
S31501001D10805F14BF562076200090134807F0E6FC3A
S31501001D20236C22AC114A124813F0800F14BF1146DE
S31501001D30014613F0400F03F01F0308BF024604EBF0
S31501001D4083030C4C0C48009453F8803C07F0CEFCFE
S31501001D5023B030BD18310201505C0201955C0201CD
S31501001D60B95C0201E95C0201195D0201AF5F020182
S31501001D70BFFC0201F77E0201295D020108B5044696
S31501001D80034807F0B3FC2046FFF78AFFFFF782FFFF
S31501001D90485D020108B50446034807F0A7FC204642
S31501001DA0FFF77EFFFFF776FF5F5D020108B5044688
S31501001DB0034807F09BFC2046FFF772FFFFF76AFF17
S31501001DC0735D020108B50446034807F08FFC2046FF
S31501001DD0FFF766FFFFF75EFF835D020108B5044664
S31501001DE0034807F083FC2046FFF75AFFFFF752FF2F
S31501001DF0CD5D020108B50446034807F077FC20468D
S31501001E00FFF74EFFFFF746FFD75D020108B507480A
S31501001E1007F058FC4CF250301CF03EF9FFF72FFF4B
S31501001E200020FEF719FD002008BD00BFDB5E0201A0
S31501001E3070474FF0FF310020FEF7D9BB014807F08C
S31501001E4041BC00BFEA5E020182B000230193019BFF
S31501001E50632B01DD02B070470046019B0133F5E7B4
S31501001E607047D8F84C3041EA005141F4406143F8DB
S31501001E70201070477047F8B500F57F2303F6FF730E
S31501001E80050D1944D8F84C700C0D2E46A64207D301
S31501001E9007EB840107EB8500BDE8F840FEF798BB28
S31501001EA030461146FFF7DDFF0136EFE708B511EEC3
S31501001EB0102FFFF7C9FF42F4805201EE102F08BD23
S31501001EC008B5FFF7C1FF11EE102FFFF7BDFF22F492
S31501001ED0805201EE102F08BD11EE100FC0F3003035
S31501001EE0704710B511EE104F14F0010429D1FEF719
S31501001EF049FB204612210134FFF7B3FFB4F5805F99
S31501001F00F7D1D8F80040A269120DA369E1690B4423
S31501001F10B2EB135F05D210461621FFF7A2FF01327D
S31501001F20F3E7D8F84C3002EE103F4FF0FF3303EEE3
S31501001F30103F11EE102FFFF787FF42F0010201EE6D
S31501001F40102F11EE102FFFF77FFF42F0040201EE72
S31501001F50102F10BD10B5FFF777FF11EE104F630775
S31501001F6007D5FFF771FFFEF7FCFA24F0050401EE31
S31501001F70104F10BD11EE100FC0F380007047000026
S31501001F800A460146014807F0B1BB00BF075F0201DF
S31501001F901FB5D8F8004027486168FFF7F1FFA1682F
S31501001FA02548FFF7EDFF00212448FFF7E9FFA16966
S31501001FB02348FFF7E5FFE1692248FFF7E1FF2249E0
S31501001FC001A81BF095FE01A805F072FD1F4A01A9A3
S31501001FD0002818BF02461E4807F088FB1D4805F079
S31501001FE067FD01461C4807F081FB21681B4807F085
S31501001FF07DFB1B48D8F84C10FFF7C2FF1948D8F8EB
S315010020003410FFF7BDFF1848D8F84810FFF7B8FF9E
S315010020101648D8F84010FFF7B3FF1548D8F8441012
S31501002020FFF7AEFF1348D8F81810FFF7A9FF0020F5
S3150100203004B010BD215F02012D5F0201395F02016B
S31501002040435F02014C5F0201545F0201175F020107
S315010020505C5F0201675F02016E5F0201805F020140
S31501002060965F02019F5F0201A95F0201B35F020150
S31501002070BA5F0201C45F02010346084611461847CA
S31501002080012A70B5164619DD1C46102254F8040FB4
S3150100209000211CF0C9FB014605460A4807F026FB4C
S315010020A02246711E2846FFF7E7FF041C0146064833
S315010020B018BF012407F01AFB204670BD4FF0FF340C
S315010020C0FAE700BFF05F02011860020138B500F1BE
S315010020D0900420461BF0ACFC0AF0D5FF05460AF039
S315010020E0E1FF2946024620461BF0ADFC2046FFF7DC
S315010020F06BFD2046BDE838401BF069BD38B5014689
S315010021000446184807F0F2FA20460BF00FF90128A9
S31501002110054622D1144807F0D5FA2268134B9A4294
S3150100212004D0134807F0CEFA284638BD20460AF0F7
S3150100213053FF08B90F48F5E720460BF041F80E4862
S3150100214007F0C0FA20460AF05CFF08B90B48E9E738
S315010021500B48002507F0B6FAE6E70A48012507F01D
S31501002160B1FAE1E7DF6002010061020127051956B4
S31501002170176102012C610201446102015F610201E2
S31501002180706102017461020110B50C46034805F045
S315010021908FFC21460BF01EFFC00F10BD8B610201A3
S315010021A030F0800210B508D11C6E0548214607F0B3
S315010021B09DFA0F200BF0D8FBA047012010BD00BFF0
S315010021C09361020130F0800210B50AD11C6E0648F7
S315010021D0214607F08BFA0F200BF0C6FBD8F800005A
S315010021E0A047012010BD00BFCA6102012DE9FF4EC3
S315010021F0994630F080038A4615463CD199F822303B
S31501002200042B3CD00027BAF1020F48DD0024022638
S3150100221055F8260001361BF0CAFDB24500F1010052
S315010022200444F5D12046043507F0F2FC4FF0020ACA
S3150100223004464FF0000B2023696804EB0B00019361
S315010022400AF1010A1BF054FD55F8040F1BF0AFFD0E
S3150100225056455844019B1ED1D9F860501448294669
S3150100226007F044FA0F200BF07FFB2346D8F8000055
S31501002270104A3946A847012004B0BDE8F08ED9F8C6
S31501002280007003AB02AA012138460AF0D4FE039B73
S31501002290002BB7D0B7E700F1010B2354CCE7054C6F
S315010022A0054805F005FC002818BF0446D4E700BF21
S315010022B00C620201F77E020103620201012AF8B5EE
S315010022C016461F4604DC0B4B1868BDE8F84015E7B7
S315010022D0002501241022002157F8240001341CF0A6
S315010022E0A3FAFFF70BFF002818BF0125A642F1D17B
S315010022F02846F8BDB82903012DE9F34E81469DF81C
S315010023002C408A4693469DF830000A9D0D9F0E9EED
S3150100231001930AF041FF01465CB1012C37D02146F9
S315010023206FF00204284807F0E1F9204602B0BDE843
S31501002330F08E4D4501D05D451ED10124234807F09D
S31501002340D5F9019B22482B443B6007F0BBF939685C
S315010023502846491B8900FEF74AF91D4807F0B2F9DC
S3150100236007200BF001FB6CBB5545DED23B684B45A4
S3150100237088BF6FF00104D8E7164807F0B7F94FF4A4
S315010023808033019A594628460AF0BAFED9E712481F
S3150100239007F0ACF901AB5A464FF4000128461AF092
S315010023A001FE044650B10D4807F08CF91EB16FF0DD
S315010023B005000BF0D9FA4FF0FF34B6E7019B2B4429
S315010023C03B60C4E70024B0E7E16202015562020105
S315010023D07061020164620201776202019062020188
S315010023E02DE9FF4E9146864C4FF4987283469A46E4
S315010023F00291002120461BF074FD824808F0D0F9B5
S31501002400C4F888002046FFF761FEB9F1010F21DC0F
S315010024107D4B1D68012000270BF0A6FA28460AF01D
S3150100242095FF67650646276505460AF07FFF012881
S3150100243072D13146754807F059F93268744B9A42A0
S3150100244010D0744807F03EF94FF0FF300BF08CFACC
S315010024503D4619E010220021DAF804001CF0E4F9E7
S315010024600546D7E70220D4F888700BF07DFA30468E
S315010024700AF0B2FD98B90390674807F023F96FF0A7
S31501002480010000250BF070FA636D002B4CD16348F7
S31501002490012707F017F9384604B0BDE8F08E03208E
S315010024A00BF062FA30460AF08BFE87B15C4807F002
S315010024B009F930460AF0A5FD074628B9594807F03B
S315010024C015F96FF00200C1E7574807F0FBF8042041
S315010024D00BF04AFA717F02297CD0544807F006F9BD
S315010024E06FF00300CDE7524B002130461A1F0AF068
S315010024F0A2FD402231464F481BF045FD012306202F
S31501002500266063640BF030FABEE706F140032365EB
S31501002510F3681BBA6365ECE7DBF80010464807F081
S31501002520E5F86FF06B0091E728460AF0FFFE0128F7
S31501002530074617D1AB7F84F85D30EA7F84F85C20CB
S31501002540297F84F85E10EA6810BA05F14002024458
S31501002550E2642A6912BAA265626C2AB9374807F0A1
S31501002560B1F898E7364893E7A2690E2B12BA2266AC
S3150100257013D1236DA36513442366052924D1314E56
S3150100258051464846331F01960093A6F1680202237D
S315010025900AF0DFFE30B12C48E1E7022BEDD0042B27
S315010025A012D1EAE706F1080352460193331D00935F
S315010025B04946A6F1680302980BF096F808B123483C
S315010025C0CDE7E06E00F048FD0123A564C4F88C3028
S315010025D0002760E705200BF0C7F9B37F022B94D0E3
S315010025E009D8012B91D0DBF80010194807F07EF8C5
S315010025F06FF0040045E7042B3FF475AF0E2BF1E7AE
S315010026000040030104630201B82903010B630201BF
S31501002610270519561A6102012F610201A063020101
S315010026204461020162610201706102013D630201BE
S3150100263054400301044003017D630201E363020187
S31501002640C063020168400301076402012C640201B0
S315010026505C6302017047012A2DE9F04E1E4690B0D7
S315010026604FF0000381468A461746069340F3C18020
S31501002670102207A970681CF0D7F8079B1B78002B5E
S3150100268000F0B7803A2B00F0B480232B00F0B18024
S315010026900822A749706806F08FFC98B1C468012C1E
S315010026A007D1331D7A1E51464846FFF799FE044667
S315010026B055E0DFF88892D9F88C309C4205DC9D48BC
S315010026C007F014F84FF0FF3449E0234399F85E20F0
S315010026D0C9F88C30082C984B53F822A066D005DC3B
S315010026E0022C21D0042C3ED0002438E0202C6CD0C2
S315010026F00CDC102CF8D12046904B32463946D04797
S31501002700044660B38E4806F0F1FF28E0402C66D0FF
S31501002710802CE9D1FFF7B3FAFFF79CFF874B3246CE
S3150100272039462046D047DFE7002309F148000493E4
S3150100273008AB039399F85D30029399F85C300193E5
S31501002740D9F8583000930FC8FFF7D6FD044630B9C3
S31501002750D9F85810089A7B48521A1BF0B0F920464E
S3150100276010B0BDE8F08ED9F86410D9F86820764823
S31501002770521A0090031F18300AF0A2FE04460028E0
S31501002780EDD1D9F8742008A870491CF020F908A9E0
S315010027906F4805F049F8D9F8782008A86B491CF06C
S315010027A016F908A96B4805F03FF8D8E7D9F86C1077
S315010027B009F190000AF0E6FE09F1700209F16C01D7
S315010027C009F190000AF00CFF71E75C4B324639467D
S315010027D02020D04704460028C1D05F4893E7204611
S315010027E0564B32463946D04704460028B7D05B4897
S315010027F089E733463A4651464846FFF7F1FD044616
S31501002800002860D1FFF73BFA4C4D83460CF0E1F806
S315010028100123049306AB039305F1480095F85D3057
S31501002820029395F85C300193AB6D00930FC8FFF7E7
S3150100283063FD002813DA421C06D133463A46514657
S315010028404846FFF7E3FA0AE0831C31D16B6C3BB3D0
S3150100285095F82230042B02D1414806F033FFA96DC9
S31501002860069A3848521A1BF02AF995F85D30012B61
S3150100287031D1BBF1000F01D0FFF7FAF9394805F064
S3150100288017F910B338491BF06AFAF0B96A6D08A84E
S3150100289036491CF09CF808A9354804F0C5FF23E722
S315010028A0344806F00FFF6FF070000BF05DF8C4E7D7
S315010028B00330D4D1BBF1000F01D0FFF7D9F96FF086
S315010028C006000BF051F8012449E72B6E311D781EE5
S315010028D01BBA984743E708200BF046F895F85E20A7
S315010028E0154B53F822408CB9BBF1000F01D0FFF70D
S315010028F0BFF995F85E000AF03CFC95F85E200146AA
S315010029001D4806F0F3FE6FF00700DAE7FFF7A2FEB7
S3150100291032463946094B0020A0476FF008000BF0FC
S3150100292023F833463A4651464846FFF76FFACAE757
S31501002930180C0301506402019831020100400301A1
S315010029409664020190400301784003017A64020112
S315010029507E6402018B640201B8640201D66402013D
S31501002960F564020176650201806502018365020153
S31501002970876502012F6502019065020173B505465F
S315010029800D480E4605F094F810B9002002B070BD4E
S315010029900A491BF0E4F904460028F6D1084B0190D8
S315010029A008481968009606F0A1FE6B4601222146E9
S315010029B02846FFF750FEE9E776650201BE6502018A
S315010029C0B8290301C265020108B5034806F07AFE7B
S315010029D04FF0FF3008BD00BFEF6502012DE9F0425F
S315010029E0D0B0144681464FF498720E4604A80021D1
S315010029F01D461BF076FA04A8FFF768FB012C21DCC3
S31501002A00264B1B681C9303AA02A91C98FFF706F91B
S31501002A10A0B9029B28A8039A1C99D21A1BF04FF859
S31501002A201EAB04AA01931DAB00932946022320463F
S31501002A300AF08FFC68B11A4806F044FE012050B036
S31501002A40BDE8F0821022002168681BF0EDFE1C90A3
S31501002A50D9E720AB2A4601931FAB0093214604AB6D
S31501002A6030460AF041FE074608B10E48E4E71F98D2
S31501002A7000F0F2FAFFF703F90BF0ABFFFFF7EAFDFF
S31501002A8004AB2A4621463846FFF7ACF82B462246C8
S31501002A9031464846FFF7BAF9D0E700BFB829030126
S31501002AA0076402012C6402012DE9F7460BF0ECFEE6
S31501002AB006461C4806F006FE1B4F3468B44203D195
S31501002AC0002003B0BDE8F08654F8342CA4F1340993
S31501002AD0DFF860A00025002AB4BF53232E2312F08D
S31501002AE0010F14BF49212E2112F0020F009114BFCC
S31501002AF04F202E200190A4F12C010C4806F0F6FD82
S31501002B005AF82530994504D157F82510084806F09A
S31501002B10EDFD0135032DF3D10A2006F0C3FD24682E
S31501002B20CCE700BFC9670201C0290301E5670201BD
S31501002B300BAB0201F86303012DE9F04E9CB0049042
S31501002B40144629208A4603930AF00EFF032C09DD59
S31501002B504FF0FF346FF029000AF006FF20461CB043
S31501002B60BDE8F08E2A200AF0FFFE012C1FDD039B33
S31501002B701022002158681BF057FE05462B200AF04B
S31501002B80F3FE032C4FF001040CBF039B002107AA9F
S31501002B90504608BF996808AB00940EF001F9B0F1F0
S31501002BA0000907DA6FF02B000AF0DEFED6E74FF4D4
S31501002BB00045E3E7079B2C205E680AF0D5FE13ABC0
S31501002BC0514601930BAB009332464B46364806F00D
S31501002BD08DFD079B224608993046D3F860A02B4607
S31501002BE0D0470128824607D04A4631462F4806F08B
S31501002BF07DFD6FF02F00D7E730200AF0B5FE28469D
S31501002C000AF094FB012804463DD131200AF0ACFEBE
S31501002C1028460AF0E1F928B9254806F053FD6FF078
S31501002C203100C1E732200AF09FFE28460AF0C8FAB1
S31501002C300A9BE86803F13F02194600BA059310445E
S31501002C401FF0AEFF079A00F1FF3B08998246304616
S31501002C50136E5A4601311F46059B2B44B8478345DF
S31501002C601AD133200AF080FE0A99284601FB0AF19F
S31501002C70FDF7BDFC0F4B04981D60039B1968FFF718
S31501002C807DFE04466AE76FF0300054460AF06CFE9A
S31501002C90094806F017FD61E74A463146034806F042
S31501002CA025FD6FF032007FE72568020169680201A0
S31501002CB081680201B82903019D6802012DE9F04EE0
S31501002CC00127DFF8689092469B463E46564506DB4D
S31501002CD017B10A2006F0E6FC0020BDE8F08E012EB1
S31501002CE05BF8264002DD202006F0DCFC4946204642
S31501002CF01BF07CF90546A8B1002720462F7006F087
S31501002D00E1FC2C465C2304F8023B494620461BF0B5
S31501002D106DF905460028F0D12F46204606F0D2FC73
S31501002D200136D3E7204606F0CDFCF9E7B468020187
S31501002D30012A08B50ADD0A22002158681BF074FD34
S31501002D40C0F1FF2000F57F00FE3008BD0020F7E747
S31501002D5013B50224009418F0ADFD02B010BD13B5F1
S31501002D604FF0100C02248DE8101018F007FD02B088
S31501002D7010BD000013B54FF0100C01248DE81010A2
S31501002D8018F0FCFC02B010BD13B50124009418F034
S31501002D9091FD02B010BD012AF0B51D4699B005DCC2
S31501002DA0104806F0A3FC002019B0F0BD012404ABC5
S31501002DB0009403AAA96868680DF0F2FF071E0BDBF1
S31501002DC0039804A9466817F081FE38B13B4632469E
S31501002DD06968054806F08AFC2046E5E718F070FAAE
S31501002DE0E2E700BFA86A0201D36A0201042A2DE9BB
S31501002DF0F0461D4699B04FF00003039306DC06F03A
S31501002E0019F90446204619B0BDE8F086012604AB3F
S31501002E10009603AAA96868680DF0C2FFB0F100091F
S31501002E200CDB039804A9476817F050FE044638B135
S31501002E304B463A466968124806F058FC3446E1E7C3
S31501002E4001461022E8681BF0EFFC1022824621465B
S31501002E5068691BF0E9FC51460246286918F0B9FA7F
S31501002E60431C014608D1CDF800903B466A682969A2
S31501002E70044806F03BFCE1E7034806F037FCC1E7EE
S31501002E80FE6A02012A6B0201556B0201D9B1431890
S31501002E9013F8013C0BB10A2B07D10D4A10F8013B7F
S31501002EA063B1D35C13F0B7030FD100210BE0012905
S31501002EB009D00378002BF8D00139EFE70029F6DCB9
S31501002EC00CBF01210021084670470029F4DCECE71C
S31501002ED01C4A020138B5194D2C6824B9184806F068
S31501002EE005FC002038BD204618F004FD041E22DA38
S31501002EF019F080FC0146134806F0F8FB0A3418D194
S31501002F002B68596909BA0F2905D810220E4806F00F
S31501002F10EDFB00232B602A6893691BBA112BE0D9BC
S31501002F2051691122094809BA06F0E0FB0020286020
S31501002F3038BD0748D3E7012038BD00BF3041030142
S31501002F40F86E0201236F0201416F0201596F0201FE
S31501002F5039B302012DE9F84606460C46002963D02D
S31501002F60FFF794FF0546F0B1304F0025304806F0D3
S31501002F70A9FBA54204DB2E48BDE8F84606F0A2BB34
S31501002F80002D02DD384606F09DFB3046013506F080
S31501002F9099FB30461AF00BFF054430461AF007FF3D
S31501002FA001300644E5E7A30727D1402C06DD22467A
S31501002FB031462048BDE8F84606F098BB1E4806F0A3
S31501002FC095FB002CDFF87C90B8BF0334DFF884A0B2
S31501002FD0A410671EA54204DB1848BDE8F84606F0B2
S31501002FE085BB56F82510BD42ACBF4A465246144829
S31501002FF0013509BA06F07AFBECE7402CD7DC114F14
S31501003000DFF85090104806F071FBAC4201DC0F4826
S31501003010E3E7621E715D9542ACBF3A464A460C48EB
S3150100302006F064FB0135F0E7BDE8F886716F020131
S31501003030746F0201766F0201866F0201F578020153
S31501003040886F0201F77E0201916F0201D3A102018D
S31501003050936F0201240103017FB50246064B07491E
S31501003060186001A81BF0B3FC01A9054804F0DCFBBC
S3150100307007B05DF804FB00BF304103017A64020129
S315010030809A6F0201012A2DE9F04E914696B01F462C
S3150100309002DC4FF0FF3683E058680378612B37D1A5
S315010030A0022A0AD1FFF716FF08B9012678E0A24BDA
S315010030B0A248196806F01AFB0DE010220021B86833
S315010030C01BF0B2FBFFF7C8FFFFF704FF0028ECD0A7
S315010030D0B9F1030F01D1002662E010220021F86840
S315010030E01BF0A2FB944B19684A6812BA904204D2AB
S315010030F00146934806F0FAFAEDE70246084619F04A
S31501003100E8FA0028E7D019F075FB01468D48D1E7AA
S31501003110894D2B682C461BB98B4806F0D3FAC4E7B8
S3150100312002228A491AF026FE064600283CD1B9F148
S31501003130030FAEDD01461022B8681BF075FB28604F
S31501003140FFF7C8FE0028B0D010223146F8681BF000
S315010031506BFBB9F1040F824610D12B685B681BBA71
S315010031601A465146206819F0B4FA0646B0B119F06C
S3150100317041FB0146734806F0B9FA96E7102231463B
S3150100318038691BF051FB2A6801460346526812BA98
S315010031909042E5D26E4806F0A9FA86E7C4F800A087
S315010031A0304616B0BDE8F08E02226A4978681AF0F8
S315010031B0E1FDD8B9B9F1030F7FF76BAFB96828689C
S315010031C0FC6818F057FE011E04DA19F013FB0146DC
S315010031D06148D0E72246286819F055FA0028BFF65B
S315010031E07AAF19F007FB01465C48C4E778680378B3
S315010031F0732B40F0BF80B9F1030F7FF74AAFBB686D
S31501003200B9F1040F0393FB68049300F093803B69C3
S3150100321007F1100AA9F104090A931A783C2A2ED15A
S3150100322001330DF1580B00254BF8303D2E46231D79
S315010032300A9F39783E2943D0B14501DC48489AE7CF
S3150100324021B901365AF826200A92F1E70022594699
S31501003250384605931BF0E8FA0A9A00BA059B04352D
S31501003260D21B002A43F8040B04DC39463D4882E7A9
S3150100327001320A920A9A11782029F9D0D8E75B2AF5
S3150100328041D101330DF1580B4BF8303D0025364F36
S315010032902E46364B0A9A12785D2A02D10CE001308D
S315010032A00A900A980278202AF9D0F2B901365AF81A
S315010032B026200A92B145EDDC0A9B19785D29BDD11C
S315010032C00399206818F0D6FD011EFFF67EAF009522
S315010032D0254B049A206819F0EBF80028BFF6FBAEDF
S315010032E019F088FA0146224845E79A5C059312F0DF
S315010032F0440FE1D0102259461BF096FA0135387079
S31501003300059B0137D6E7DFF860A000252E460A980F
S3150100331001361AF04CFD0A9900F1010B50465D4445
S315010033201AF0E6FC07EB8603B145DA441B690A93FA
S31501003330EDDCC5E70025C3E730410301BB6F0201A0
S31501003340D96F020108700201247002019470020112
S31501003350977002014E740201CA700201F0700201F7
S315010033602F7102010E710201344103011C4A02014F
S315010033704A710201672B40F0BA80B9F1040F4FF090
S31501003380000307937FF785AEB9F1050FBE6803D138
S315010033903378732B7FF47DAE39692068FD68D7F8E1
S315010033A014A018F067FDB0F1000BFFF60EAF3378ED
S315010033B06E2B04D0732B50D1B9F1050F4DD159465F
S315010033C00DF15809206818F040FE594649F8380DA4
S315010033D082464A46206818F040FB337883466E2BB6
S315010033E034D11022002178691BF01EFA03464FF0F2
S315010033F0FF370AF101020392089A92451CDA0399F2
S315010034008A42327808BF01376E2A0BD19F4209D111
S3150100341059460022206818F03FFC0146284604F070
S3150100342003FA58E659464A462068049318F015FBF4
S31501003430B0F1000B049BDFDA3378732B09D1A14974
S315010034407A1C0AA81BF0C3FA0AA9E7E74FF0FF3373
S31501003450CDE79D4806F04AF927E6206807AB5246B4
S31501003460594618F0C0FC079C8146002C01D19749AA
S31501003470D4E736DD3378762B28D12146FFF706FDD2
S31501003480064608B14946C9E7042C0AD1D9F80020F5
S315010034900AA88F491BF09BFA0AA9284604F0C4F929
S315010034A07EE6A20710D1142C0EDCDFF870A20746C7
S315010034B00AAB59F8072003EB4700514604371BF0C6
S315010034C086FABC42F4DCE7E78248C3E7612B02D106
S315010034D002468149B5E7732B7FF4DBAD22467C4971
S315010034E0AFE7204619F086F901467C4843E6702B82
S315010034F022D06C2B40F0BC800126B9F1020F1DD001
S31501003500B9F1030FD7F808A01AD0FD685146206813
S3150100351018F0B0FC071EFFF658AE05B320680AABDB
S315010035202A46394618F05FFC04460A98002809D154
S315010035302A4651466A48DDE52026DEE7DFF8E0A1A6
S315010035400025E3E7CEDD2946664806F0CFF80A995D
S315010035502046FFF7FFFC644806F0C8F8BBE5DFF834
S31501003560C491DFF8C4A1394608AA206818F0FDF90C
S31501003570431E0146082B76D801A252F823F000BF5C
S31501003580A5350001DD350001FF3500015936000181
S3150100359067360001673600016736000167360001AC
S315010035A0AB30000100223946206818F075FBAE42A7
S315010035B00FDB4E4BC5F120014944002808BF1846D0
S315010035C04B4B0278002A14BF02461A46494806F0B8
S315010035D08DF801351F2D0EDD47483BE7013DAE4213
S315010035E009DBC5F120014548494406F07FF8002D65
S315010035F008BF4FF0FF356B1C089FB4D16BE50C2259
S315010036003946206818F09CF981680746206809BA8E
S3150100361018F0C3FA7B68024618BA00280A90FFF62A
S3150100362061AF08D1AE42E6DBC5F120013448494419
S3150100363006F05CF8DFE7AE42DDDBC5F1200131487B
S31501003640494406F053F807F10C000A99FFF782FC8A
S315010036502D4806F04BF8CEE7C5F120015046494406
S3150100366006F044F8C7E7AE42FFF61FAD274882E5EC
S31501003670022227491AF07EFB002857D1B96828682B
S3150100368018F0F8FB011EFFF6A0ADB9F1030F0DDD31
S31501003690FA68286818F08CFF061EBFF61CAD19F0F3
S315010036A0A9F801461B4806F021F879E5286818F0C3
S315010036B0F9FF061EBFF60FAD19F09CF80146164834
S315010036C0F1E700BFC5D0020164710201F77E020174
S315010036D07B710201827102019C710201A1710201D9
S315010036E020A30201EE71020139B30201A26F0201A8
S315010036F0B96F0201BB710201C3710201DF710201DF
S31501003700E5710201EC710201E97102010172020126
S31501003710ADBB02011572020130720201367F020150
S315010037204F12030151120301F47102017868037803
S31501003730682B4AD12B68864819685D6909BA05F074
S31501003740D5FF23682DBA83485A6812BA114605F087
S31501003750CDFF23688048996809BA05F0C7FF236839
S315010037607E48D96809BA05F0C1FF23687C48196902
S3150100377009BA05F0BBFF29467A4805F0B7FF236869
S315010037807948996909BA05F0B1FF012D15D9236860
S315010037907648D96909BA05F0A9FF022D0DD023682B
S315010037A07348196A09BA05F0A1FF102D05D92368D6
S315010037B07048596A09BA05F099FF206818F00EFA9F
S315010037C001466D4805F092FFC5E603226B491AF0E2
S315010037D0D1FA064640B901461022B8681BF024F812
S315010037E02B6800BAD861DBE40222654978681AF0D1
S315010037F0C1FA0546A8B910220146B8681BF098F827
S31501003800102282468B46F86829461BF091F85246EB
S31501003810CDE900015B46206807F058FF00EAE07633
S31501003820BEE40222574978681AF0A4FA0546002830
S315010038305CD1BB681B78702B27D1DFF864912068B7
S3150100384018F0CCF90746504805F050FF4F4805F0EF
S315010038504DFFBD42BFF63FAC0AAB08AA2946206818
S3150100386018F0A0F9061E04DA18F0C4FF014648480C
S3150100387019E70A9B2946099A4846013501930B9B8C
S315010038800093089B05F032FFE3E7612B1AD1102262
S315010038900146F8681BF04CF8102282468B463869BF
S315010038A029461BF045F85246CDE900015B462068E2
S315010038B018F088FD061EBFF60EAC18F09BFF0146F8
S315010038C03448F0E6642B7FF4E4AB01461022F86835
S315010038D01AF0AAFF0146206818F0A0FD061EBFF6E1
S315010038E0FAAB18F087FF01462B48DCE678680378C7
S315010038F0632B21D1B9F1020F1BD0B9F1040F7FF46B
S31501003900C8AB10220021B8681AF08EFF10220646B5
S315010039100021F8681AF088FF05460121206807F0A2
S315010039201BFD01232A463146206807F08BFCFFF771
S31501003930D2BB00252E46F0E7022218491AF01AFAE0
S31501003940064600287FF4A5AB206807F031FF27E47F
S315010039504C7202015B7202017272020188720201EB
S315010039609F720201B6720201C4720201DB72020188
S31501003970F272020109730201207302013773020117
S3150100398032FD02013B7302013E73020159730201CA
S315010039908B730201C4730201E3730201B178020160
S315010039A0AA7302012DE9F846924658481F4604F0CB
S315010039B07FF80546564804F07BF80446554804F05E
S315010039C077F80646DDB12846102200211AF02CFFB1
S315010039D005462CB12046102200211AF025FF044687
S315010039E02EB13046102200211AF01EFF0646AAF11A
S315010039F00203032B43D8DFE803F0237B0B054FF0CB
S31501003A00FF35E6E71022002138691AF00DFF064658
S31501003A1010220021F8681AF007FF1022044600213F
S31501003A20B8681AF001FFBAF1030F8146054607D1BE
S31501003A300EF094F94845B6BF4C464D464FF0FF355A
S31501003A407F68354839461AF08AF9002857D0394631
S31501003A5032481AF084F988B3394631481AF07FF9A9
S31501003A6098B339462F481AF07AF990B339462E4859
S31501003A701AF075F958B339462C4805F037FE013569
S31501003A8012D12B4805F01EFE0EE0E6B1022B08D03E
S31501003A90032B3246214628460CD0BDE8F8460EF0E7
S31501003AA099B9244805F022FE4FF0FF30BDE8F886AB
S31501003AB02148E7E7BDE8F8460EF0B8B90223691CCC
S31501003AC0DFD0002CE1D11D48DCE70123F7E7032312
S31501003AD0F5E76A1CD5D0002CF5D0204609F026FC66
S31501003AE00128E5D1E26804F14001284612BAD4E77B
S31501003AF010220021B8681AF097FE814698E76B1CE0
S31501003B00BFD02846BDE8F8460EF0BCB929740201BB
S31501003B102E74020137740201B98C02014474020148
S31501003B201C6902014A74020151740201BF74020147
S31501003B3056740201947402019D68020171740201B6
S31501003B4008B5034805F0D2FD4FF0FF3008BD00BFB0
S31501003B509474020137B5074D074C8DE80C000B46EE
S31501003B6006490246641B2846A410614305F080FA03
S31501003B7003B030BDDC2E0301F8350301B76DDBB6AA
S31501003B800023C25C2E2A03D118444078303870478E
S31501003B9012B10133082BF4D101207047012A2DE916
S31501003BA0F04206460F4611DD541E0A490B2258689B
S31501003BB003F1040905F000FA40B1C5684B462246F7
S31501003BC039463046AC46BDE8F04260474FF0FF301B
S31501003BD0BDE8F0824C18030108B5022102480EF037
S31501003BE05BFB002008BD00BFA08601002DE9FF4256
S31501003BF01D46131F9146012B04D94FF0FF3004B027
S31501003C00BDE8F0821022002168681AF00DFE10222C
S31501003C100021C7B2A8681AF007FE0446A868FFF794
S31501003C20AFFF03280646E8D810220021E8681AF0FB
S31501003C30FBFDB9F1050F8DF80F000CD11022002103
S31501003C4028691AF0F1FD0F4D21460419631A002B5C
S31501003C5003DC0020D3E70120F5E701233246009378
S31501003C6038460DF10F0301F101090EF071FB10B198
S31501003C70284605F027FD42F6F8201AF00DFA4946C6
S31501003C80E4E700BF00770201052A2DE9F3421C464D
S31501003C9004D04FF0FF3002B0BDE8F0825868102220
S31501003CA000211AF0C1FD10220021C6B2A0681AF047
S31501003CB0BBFD0746A068FFF763FF03280546E8D862
S31501003CC010220021E0681AF0AFFD10228146002182
S31501003CD020691AF0A9FDCDF8009003462A46394617
S31501003CE030460EF0F3FA0028D5D0024805F0EAFC7A
S31501003CF00120D0E719770201022AF8B522D1102254
S31501003D00002158681AF0E9FD0646104F00252C4699
S31501003D100F4805F0D7FC002E01DBA64208D1E0B220
S31501003D200EF056FB20B901352146384605F0DEFC7A
S31501003D300134802CEFD10A2005F0B4FCB5FA85F0E8
S31501003D404009F8BD4FF0FF36DFE700BF48770201B3
S31501003D50327702012DE9F04E1D46414B1646022EE1
S31501003D608AB0D3F834210493039204DC4FF0FF3078
S31501003D700AB0BDE8F08E11F0010929D0394B93F84C
S31501003D8000B05C689F68DDF80C904E460DF1180A8C
S31501003D90102E5346A8BF10263A460096214658468D
S31501003DA00EF094FA054678B32F4805F08BFCA9EB83
S31501003DB00609B9F1000FE8DC2A4B002083F800B0B0
S31501003DC05C609F60049B1A46039BC2F83431CFE7BF
S31501003DD01022494668681AF027FD102249465FFA03
S31501003DE080FBA8681AF020FD0446A868FFF7C8FE04
S31501003DF003280746BAD8032EC5D010224946E868DB
S31501003E001AF012FD0390BEE72146184805F06EFC34
S31501003E102B46B3420BDB1648002EA8BFA41905F0AA
S31501003E2051FCB5420CDB0A2005F03CFCBFE71AF851
S31501003E3003101048059305F059FC059B0133E8E78B
S31501003E401AF80510A1F120035E2B04D90A4805F0E2
S31501003E5039FC0135E5E7094805F048FCF9E700BFFB
S31501003E604C18030134450301197702014E7702010B
S31501003E7058F3020154770201FB030301265D020197
S31501003E80032A2DE9F0461C4685B004DC4FF0FF30CD
S31501003E9005B0BDE8F0865868102200211AF0C4FC6E
S31501003EA0102200215FFA80F9A0681AF0BDFC0546D0
S31501003EB0A068FFF765FE03280746E7D81022002110
S31501003EC0E06800241AF0B0FC06466A1EA2462E449B
S31501003ED002442946124805F009FC731B002B05DC38
S31501003EE0C4B1104805F0EEFB0020D1E701233A46A4
S31501003EF0009329460DF10F0348460EF0E7F900B18C
S31501003F000134504601220DF10F01013518F08CFEE6
S31501003F108246E2E75146044805F0E8FB2046B7E74A
S31501003F205A7702019D770201125D0201052A2DE9E8
S31501003F30F74681461D4604D003B0BDE8F04605F0BC
S31501003F4079B85868102200211AF06EFC102200215F
S31501003F508246A8681AF068FC102200210646E86825
S31501003F601AF062FC0446E868FFF70AFE03280746D2
S31501003F7001D94846E0E7002128691022F6B2AAEBEA
S31501003F8004051AF051FC214604EB0009494505EBED
S31501003F90010301D100200CE001243A460094304689
S31501003FA001F1010A0EF0D4F930B1064805F08AFB99
S31501003FB0204603B0BDE8F08642F6F8201AF06CF808
S31501003FC05146E3E779770201022A2DE9F0461646C2
S31501003FD087B01C4636DD5868102200211AF024FCF1
S31501003FE0102200210746A0681AF01EFC8146A0682F
S31501003FF0FFF7C6FD0328054624D810220021E068F4
S315010040001AF012FC102828BF1020032E824616D063
S3150100401020690A2200211AF007FC04460C4ECDF84D
S3150100402000A002AB2A464946F8B20EF04FF910B18C
S31501004030304605F047FB20461AF02EF8EFE74FF41D
S315010040407A74EBE74FF0FF3007B0BDE8F08600BFAA
S3150100405019770201032A2DE9FF4E82461E4605D035
S315010040604FF0FF36304604B0BDE8F08E11F0010482
S315010040701FD03A4B93F80C901D695F69DFF8FCB0CD
S315010040802946374805F032FB009402AB3A462946E9
S3150100409048460EF01BF928B3324805F013FB3248A7
S315010040A009F066FF70BBBAF1000F00D02544264621
S315010040B047E01868012105F0FDF9102200210446A8
S315010040C070681AF0B1FB102200215FFA80F9B0681E
S315010040D01AF0AAFB0546B068FFF752FD032807460A
S315010040E0CCD9BDE70299012C09BA029104D11F4826
S315010040F0090E05F0FBFAD2E7022C06BF090C1C4893
S315010041005846F6E7102203A91A481AF08DFB012C2E
S315010041101FD100060290029B039E1BBA0293154B08
S31501004120F61A10D0009402AB3A46294648460EF0DC
S315010041300FF910B1104805F0C5FABAF1000F00D019
S315010041402544002E9CD1054B83F80C901D615F61BF
S3150100415088E7022C08BF0004DCE700BF34450301F1
S31501004160957702019C770201CB770201B6770201AE
S31501004170BD770201984E030100770201C47702015F
S31501004180002067E7012065E770470148704700BFD7
S31501004190A0860100024BC01A18BF4FF0FF307047CE
S315010041A0A0860100012A10B508D100240EF05AF8A4
S315010041B001460D4805F09AFA204610BD0A225868B4
S315010041C000211AF031FB04460146084805F08EFA33
S315010041D020460EF033F804460028EDD00146044887
S315010041E005F084FAE8E700BFCF770201E57702011F
S315010041F00178020110B50C46027800212A2A4FF0F7
S3150100420010020ED101301AF00FFB022C05D0042C3E
S3150100421005D0012C0DD1007810BD008810BD0068B5
S3150100422010BD1AF001FBE4000123A340013B184035
S3150100423010BD0020F7E72DE9F34E81460D461646DF
S315010042401F46002419F0B3FD82464A4B682C2344CD
S31501004250009306D14946484805F048FA4FF0000B4D
S3150100426037E0444B52464846E3581946019319F044
S3150100427081FD019B834600287AD1184619F097FDE6
S31501004280824575D1009BD3F80490002F41D12B783C
S315010042902A2B05D1681C102239461AF0C5FA0546A3
S315010042A033782A2B05D1701C102200211AF0BCFA92
S315010042B006463146284619F052FDB9F1050FCDD80B
S315010042C0DFE809F0030B11141B22B0FA80FB4FEA59
S315010042D05B1B584602B0BDE8F08E10F1000B18BF0B
S315010042E04FF0010BF5E74FEAD07BF2E70028D4BF88
S315010042F04FF0000B4FF0010BEBE70028CCBF4FF05E
S31501004300000B4FF0010BE4E76FEA000B4FEADB7B92
S31501004310DFE739462846FFF76DFF39460446304642
S31501004320FFF768FFB9F1050FD3D8DFE809F00309F4
S315010043300F16181A231AD3F1000B4BEB030BC8E720
S31501004340B4EB000B18BF4FF0010BC2E78442ACBFC0
S315010043504FF0000B4FF0010BBBE78442C7E78442E5
S31501004360CCE78442B4BF4FF0000B4FF0010BB0E72E
S3150100437008346AE7F431020154780201042A10B5BF
S315010043801C461CD11146186805F094F8821C034698
S31501004390062A0FD8DFE802F0040E0E05050E050009
S315010043A00023E2686168A068FFF745FFB0FA80F074
S315010043B0400910BD034805F085F90020F6E74FF0E6
S315010043C0FF3010BD6B780201024B00221A609A6819
S315010043D05A6070474C450301034B1A69DA601A6843
S315010043E05A615A689A6170474C450301034BDA6872
S315010043F01A615A691A609A695A6070474C450301F5
S3150100440008B505F042F918B1BDE8084005F030B924
S315010044104FF0FF3008BD70B5ADF5866D0223054638
S31501004420694601A802930CF067F9044660BB06468B
S315010044306A464FF480610CA80CF016FA021E1CDCC9
S3150100444068460CF0EBFA154900200CF007FB2146F3
S315010044502846FCF7CCF822462146114805F046F9D4
S315010044602246104904A81AF0B2FA04A90E4803F02C
S31501004470DBF928460DF5866D70BD70190CA914443B
S31501004480164419F05CFDD3E7009800240CF01AFBE2
S315010044900146064805F02AF9D2E700BF01440001AA
S315010044A0057902012D7902018765020126A902011A
S315010044B0034B1A681AB95A68511C10705960704733
S315010044C04C450301064A002012F8013F2BB9C0F3FF
S315010044D08113184400F03F0070471844F4E700BF09
S315010044E06845030138B5094C656B002D04DC084CA1
S315010044F014F8010F30B938BD94F83800013D05F0C4
S31501004500D1F8F2E705F0CEF8F2E700BF4C4503011A
S31501004510674503012DE9F04E0027DFF820A13E464D
S315010045204FF0FF35ADF5507D02900DF59C7BCFAC7C
S31501004530D94605F09DF8DAF80010C2B221B110464D
S31501004540039205F0AFF8039A032A6DD059DC002ACD
S315010045506AD00BF8012BD8F858205168364A914297
S3150100456065D15C45E5D100232370A4EB090451E034
S315010045700138082817D8DFE800F0050505161616D4
S3150100458025252500059C0EA9029B049A1C4420465C
S3150100459019F0D5FC0498A54228BF254601382044C8
S315010045A0864238BF0646254B1B68002BBDD1013715
S315010045B0642138461EF07AFD0029B6D12E2005F079
S315010045C071F8B2E7741C42F21070641B19F064FDB5
S315010045D02346324629460094194805F087F82146B4
S315010045E02846FCF704F82246164906A81AF0EFF900
S315010045F006A9154803F018F905980DF5507DBDE893
S31501004600F08E0A2A01D00D2AA3D1ABEB09040022B0
S315010046108BF80020002C07DB0EAB05AA04A948463F
S315010046200AF071F80028A3DA4FF0FF30E5E705F04C
S3150100463084F8002895D0F7E771960001581C03010C
S3150100464030790201836502018765020138B5154695
S315010046501C481C4603F02CFA1B4930B30378312B56
S3150100466023D10123022D0B6021D160681022002184
S315010046701AF033F90446154805F038F82046642443
S31501004680FFF748FF054605F000F808B104F0F0FF12
S315010046904FF47A7019F000FD013CF4D16B1C08D17E
S315010046A00B4805F023F8012038BD0023DAE7002482
S315010046B0E1E72946074805F019F8074B20461D6032
S315010046C038BD00BF95790201581C0301A07902018A
S315010046D0C4790201E2790201B82903012DE9F04EFC
S315010046E08CB0AD4815461C4603F0E2F900285AD0B5
S315010046F0102200211AF098F80646D8F80830012D44
S31501004700019353DD1022002160681AF08DF8032D04
S3150100471006464BD10A220021A0681AF085F8074601
S31501004720002843D0019B834213D001469B4804F0E5
S31501004730DDFF4CF2503019F0AFFCC8F8087011F0EB
S315010047402AF94CF2503019F0A7FC04F091FF0D281C
S31501004750FBD19349206819F002FB3A4604463146DB
S3150100476030BB904804F0C2FF3046FFF754FE019B70
S31501004770BB4214D019468C4804F0B8FF4CF25030B5
S3150100478019F08AFC019AC8F8082011F004F94CF2D4
S31501004790503019F081FC04F06BFF1B28FBD1204639
S315010047A00CB0BDE8F08E4FF40046A6E7019FD0E7B6
S315010047B07E48002404F09AFF7D494FF0FF3A7D4B75
S315010047C08E60CB637C4B4C6381F838400B640D23C0
S315010047D081F84430232381F845300C61FFF7F4FD5D
S315010047E0FFF7FAFD8B46754ACBF84820039204F091
S315010047F03FFF012807D00328F9D10025BDE1224654
S31501004800A2461446EFE704F033FF10F0E00F8146AD
S315010048105ED004F02DFF10F0E00F59D0C5B2A5F11E
S31501004820200302939DF80840544573D1FFF7DEFD3E
S3150100483004F01EFF10F0E00F49D05FFA89F95FFA24
S3150100484080FA4D44A9F120095FFA89F25544A2F193
S31501004850020932BB04F00CFF10F0E00F37D0C0B2F2
S31501004860A0F12009054404F003FF10F0E00F5FFA00
S3150100487089F9C2B22BD05F21154401FB09F9203A0F
S3150100488059FA82F904F0F4FE10F0E00FC1B21ED01D
S31501004890C5F381122A4402F03F022032914216D119
S315010048A00D44B9F1010F38DC04F0E2FE10F0E00F1F
S315010048B00DD0C5F38112C0B2154405F03F05203570
S315010048C0A84204D104F0D4FEC0B20D287AD0A24683
S315010048D0FFF78CFD012200218BF81C2023228BF887
S315010048E01D2004F120028BF81E204E228BF81F207A
S315010048F08BF82010FFF7E6FD9BF8442020308BF85B
S3150100490020008BF822108BF82120FFF7EBFD2246C1
S31501004910544675E7FFF760FD8AE704F0A9FE0246F3
S31501004920C0B212F0E00FD2D0BAF1440F054409F13A
S31501004930FF3922D1DBF810209AB100F06001DBF8D3
S315010049404020402906D100F0BF0090470022CBF855
S315010049501020A6E700F07F013F2908BF40F0400084
S31501004960F3E79BF84520824203D10123CBF81030AF
S3150100497097E7DBF84020904793E7BAF1530F90D1C0
S31501004980DBF848200E4B511C10709942CBF84810A9
S3150100499028BFCBF8482084E73A5B0201007A02017E
S315010049A0327A0201387A0201DB7A0201777A020150
S315010049B04C450301C9430001B14400019845030177
S315010049C0AC450301029DBAF1530F05F1200540F0F4
S315010049D0B08000227F49CBF834208BF8382023227F
S315010049E08BF84520DBF84820039B8BF844008A426C
S315010049F004BF02F1FF32CBF84820DBF84820D21A77
S31501004A00002A40F38280012A4FF07E018BF82010A4
S31501004A107DD0022A4FF021018BF8211079D09BF825
S31501004A204E10032AA1F12001C9B2CBF834104FF080
S31501004A3020018BF822106ED09BF84F1001F0600018
S31501004A4040285BD101F0BF01042A8BF838104FF0E2
S31501004A5040018BF8231060D09BF85010052AA1F174
S31501004A6020018BF844104FF02D018BF8241056D0FD
S31501004A709BF85110062A8BF845104FF023018BF84D
S31501004A8025104ED0072A4FF04E018BF826104AD03A
S31501004A90082A4FF031008BF8270046D0092A8BF8F7
S31501004AA0281044D0222210218BF8292020228BF8AD
S31501004AB02A207E228BF82B208BF82C2001228BF8C2
S31501004AC01E508BF81C204D1C01F120025D448BF811
S31501004AD01D204FF000095922A2468BF81F2085F8A8
S31501004AE01C90FFF7EFFC9BF84420594420302877AF
S31501004AF08A7781F81F90FFF7F5FC08E701F07F0040
S31501004B003F2808BF41F040019EE70321D6E7042173
S31501004B10D4E70521D2E70621D0E70721CEE7082110
S31501004B20CCE70921CAE70A21C8E70B21C6E70C2110
S31501004B30C4E7012200218BF81C2023228BF81D20BB
S31501004B4059228BF81F208BF820108BF81E50FFF787
S31501004B50B9FC9BF8442020308BF820008BF82210FA
S31501004B608BF82120FFF7BEFCBAF1420F7FF447AE66
S31501004B70DBF80450DBF80830ED1A642404F085FDF7
S31501004B8008B104F075FD4FF47A7019F085FA013C0D
S31501004B90F4D129463046FBF72AFD2A4629460E4816
S31501004BA004F0A4FD2A460D4904A80D4D19F00FFF86
S31501004BB004A90C4802F038FE731C05D10A482C6082
S31501004BC0012404F093FDD2E53146084804F08EFD38
S31501004BD02E60CCE5AB450301057902012D79020171
S31501004BE0B829030187650201B67A0201E279020159
S31501004BF073B50E46144601A90022054619F06DFE4D
S31501004C00019B024630609D4203D14FF0FF3002B056
S31501004C1070BD19782D290AD1581C01905B7833B1E2
S31501004C200022114619F059FE20600020EFE7019B92
S31501004C3018780028E9D12260E9E7012A2DE9F04E2A
S31501004C408A4698B017461E4602F1FF3404DC4FF03F
S31501004C50FF3018B0BDE8F08E5B68DFF830B21B7824
S31501004C600393DBF800300A93DBF804300B93DBF88F
S31501004C7008300E93DBF80C300F93DBF810300C93F1
S31501004C80DBF814300D93BBF81830049309F0A4FB3C
S31501004C901AF0010F05461CBF9BF81C300393039BBA
S31501004CA0722B2BD0772B53D1012C0ADD023F102218
S31501004CB0002156F8240019F0B7FD012F83B20493A1
S31501004CC01FDC05F10806304609F05AFB039B0A9CD6
S31501004CD0722B0B9B05930E9B06930F9B07937BD021
S31501004CE0039B772B40F09B80DDF834A00C9B089347
S31501004CF0059BA342C0F29380069E65E0012CE0DD90
S31501004D0027467C1E56F827702E21384619F057F88B
S31501004D108246002833D0A0EB070939464A4610A837
S31501004D2018F0EEFF18AB0FAA99440EA9002310A89C
S31501004D3009F8203CFFF75CFF002888D10AF101073A
S31501004D400DAA0CA93846FFF753FF00287FF47FAF61
S31501004D50012C20DDA31E013C012B3FF678AF022C6E
S31501004D60B06811D109F026FA054600283FF46FAF65
S31501004D70F0680BAA0AA9FFF73BFF60B167E74FF09E
S31501004D80FF330F930E93DBE709F02CFB50B1056857
S31501004D90436B0B930A93039B6C2B92D109F0B6FAE2
S31501004DA0002056E70BAA0AA9B068E4E7049B32463D
S31501004DB02146284600934B462F6BB84778BB09F12D
S31501004DC00109CA45F2DA0136079BB34202DBDDF877
S31501004DD02090F6E701348BE70C9B31462748089370
S31501004DE00D9B099304F082FC059BA34217DB214628
S31501004DF0234804F07BFCDFF898A0069F079BBB4283
S31501004E0039DBDDF8209031E0EE6A4B463A46214621
S31501004E102846B047061E1CDA1A4804F067FC9DF8BE
S31501004E200C308BF81C300A9BCBF800300B9BCBF86F
S31501004E3004300E9BCBF808300F9BCBF80C300C9B43
S31501004E40CBF810300D9BCBF81430049BCBF81830FF
S31501004E50A6E7002F03DB39460B4804F047FC494619
S31501004E6009F10109B2B2504604F040FC099B4B45D9
S31501004E70CADA0137C2E70134B6E700BF387C02015E
S31501004E804D7C020101F10201617C0201AC45030185
S31501004E90657C0201022A2DE9F74692461C4605DC8D
S31501004EA04FF0FF37384603B0BDE8F086254958680C
S31501004EB018F055FF30B304340AF1FF3A00271022E7
S31501004EC00021206819F0B0FC1F4B102200211D683B
S31501004ED00544606819F0A8FC4FF480630246064653
S31501004EE02946002017F0A6FE8146DFB9721E034649
S31501004EF02A442946154804F0F9FBBAF1020F09D1F3
S31501004F000027CFE7AAF1020A0834BAF1020FC7DD7A
S31501004F100127D4E710223946A06819F085FCC0F8AC
S31501004F200090BFE710220021A06819F07DFC8145A1
S31501004F30E6D0721E00904B462A442946044804F0E6
S31501004F40D5FBAFE7BA7D0201CC450301BD7D020168
S31501004F50E27D0201012A10B5064C05DD1022002171
S31501004F60586819F061FC20602168034804F0BEFB13
S31501004F70002010BDCC4503011C7E02012DE9F04243
S31501004F801D46D31E9146012B2DD80421286804F015
S31501004F9091FA061E2BDD10220021686819F044FCE7
S31501004FA0144B102200211C680444A86819F03CFC2B
S31501004FB0B9F1040F07460AD110220021E86819F059
S31501004FC033FC10F1FF3004D20020BDE8F08201204D
S31501004FD0F7E7042E02D127603444F2E7022E0CBF14
S31501004FE027802770F8E74FF0FF30BDE8F0820120F7
S31501004FF0BDE8F082CC450301022A70B51E4637DDB5
S315010050000421186804F056FA051E34DB102200212B
S31501005010706819F009FC102204460021B06819F0E5
S3150100502003FC012809D1042D01D12368FDE7022DD6
S3150100503001D12388FDE72378FDE7042D07D1224618
S31501005040034613F1FF33FAD311680432F9E7022D4F
S3150100505007D12246034613F1FF33FAD311880232F0
S31501005060F9E7204423468342FCD01A780133FAE754
S315010050704FF0FF3070BD012070BD2DE9F34E012ABE
S31501005080204F92469B46D7F8009035DD11F0010678
S3150100509018D01D4B5C689D68294610201DF0BCFE8A
S315010050A04B460090214620462A4605FB094417F047
S315010050B063FE154B0020C7F800905C609D6002B04E
S315010050C0BDE8F08E0421186804F0F4F9051E16DB1C
S315010050D010223146DBF8040019F0A6FB0A4BBAF19F
S315010050E0020F1C680444D7D010223146DBF80800B1
S315010050F019F09AFB8146CFE74FF0FF30DFE7012039
S31501005100DDE700BF5C1C0301CC450301042AF8B5A9
S315010051101D4637D11146186804F0CCF9071E1DDB70
S315010051201A4C10220021686819F07EFB26681022AD
S3150100513000210644A86819F077FB24681022002193
S315010051400444E86819F070FB28B1451E361B6B1C38
S3150100515006D10020F8BD0E4804F0B4FA0120F8BDCE
S31501005160042F08D133592360ABB23C440BB913F079
S315010051702BFD013DEBE7022F0BBF335B335D238034
S315010051802370F1E74FF0FF30F8BD00BFCC450301B6
S31501005190337E0201042A2DE9F046994687B059D19A
S315010051A01146186804F086F9051E56DB042D25D034
S315010051B02B4B2C4E022D18BF1E462B4C10220021C4
S315010051C0D9F8040019F030FB2768102200210744A2
S315010051D0D9F8080019F028FB24681022002104449C
S315010051E0D9F80C0019F020FB4FF0000982463F1B4D
S315010051F0D14504EB070203D1002412E01B4EDCE784
S31501005200042D17D1136821688B421AD00294012408
S31501005210049131468DE848002B460395144804F065
S3150100522065FA32464946134804F060FA204607B04B
S31501005230BDE8F086022D07BF138821883B5D2178E2
S31501005240E2E71FFA89F32C440BB913F0BDFC09F10F
S315010052500109CDE74FF0FF34E8E70124E6E700BF97
S31501005260447E0201497E0201CC4503014D7E0201C5
S31501005270527E0201847E0201012A2DE9F34E164671
S315010052801D462BDD10220021586819F0CDFA022E99
S31501005290019029D010220021A86819F0C5FA032E21
S315010052A0824625D010220021E86819F0BDFA042EA5
S315010052B0044617D028691022002119F0B5FA0546CF
S315010052C001260023B146009304F037FA90B10A2073
S315010052D004F0E8F9012002B0BDE8F08E4FF0007A43
S315010052E0002401940025EBE700244FF0007AF9E74A
S315010052F00024F7E765B1A9450ADD009A09F1FF31F6
S315010053001C4804F0F3F9009B181C18BF0120E2E7C2
S31501005310194A21461948A34604F0E8F9019F574561
S315010053200ED31748A34604F0CDF9019F57450DD377
S31501005330002C09F10109B4BF6442E4437642C3E794
S3150100534013F042FC47F804BBB344E8E713F03CFC16
S315010053503A6893450BD05B4639460A4804F0C6F9CC
S31501005360009B0133009304F0E8F90028AFD1B34460
S315010053700437DBE7A67E0201F77E0201CF7E02013A
S31501005380F87E0201037F0201022A2DE9F74606464D
S315010053901F464DD111F0010420D02D4BDC681D694B
S315010053A0DFF8C090DFF8C0A02146484604F09EF918
S315010053B0042D22D12168274804F098F9264808F0DF
S315010053C0D7FD00283BD00128244F1DD13B782D2B3A
S315010053D01AD1002EE8D06B421C44E5E70421186877
S315010053E004F068F8051E28DB21461022786819F0BA
S315010053F01BFA174B1C680444D2E7022D0BBF218808
S31501005400504617482178D7E7102201A9134819F009
S315010054100BFA019BBB4216D0042D04D12060002E4D
S31501005420C2D02C44C0E7022D0CBF20802070F6E7C5
S315010054304FF0FF3003B0BDE8F0860120FAE7002EF9
S31501005440B2D02B46C8E7024B0020DC601D61F1E7B4
S31501005450CC450301357F0201CB770201984E03014A
S315010054603B7F0201957702015477020101208BE708
S31501005470002089E737B50D46144601A9102219F017
S31501005480D3F9C3B201982B7002782D2A08D10130C5
S3150100549010220021019019F0C7F9207003B030BD28
S315010054A02370FBE7012A2DE9F04E164698B01D46FA
S315010054B005DC4FF0FF34204618B0BDE8F08EAE4B48
S315010054C011F001041A788DF850205A788DF8512080
S315010054D05A688DF84A209A688DF84B20DA688DF85B
S315010054E04C201A695B698DF84D20ADF8523027D1F1
S315010054F0686803788DF8503018F059FC012889BF87
S315010055006B688DF851405B788DF85130022E17D0BB
S315010055100DF14B020DF14A01A868FFF7ABFF032E0F
S315010055200ED00DF14D0213A9E868FFF7A3FF042E73
S3150100553006D010220021286919F076F9ADF852003B
S3150100554008F078FF9DF850300490692B5CD1022E4B
